#+options: ':nil *:t -:t ::t <:t H:3 \n:nil ^:t arch:headline author:t
#+options: c:nil creator:nil d:nil date:t e:t email:nil f:t inline:t num:t
#+options: p:nil pri:nil prop:nil stat:t tags:t tasks:t tex:t timestamp:t title:t toc:t
#+options: todo:t |:t
#+TITLE:     《计算机网络》课程实习报告（2023-2024-01）
#+AUTHOR:    张三 (20221152xxx)
#+EMAIL:     zhangsan@gmail.com
#+language: cn
#+select_tags: export
#+exclude_tags: noexport
#+TAGS: noexport
#+LATEX_CLASS: wx672ctexart
#+LATEX_HEADER: \usepackage[margin=2cm]{geometry}
#+LATEX_HEADER: \usepackage{wx672minted}
#+LATEX_HEADER: \pagestyle{plain}
#+STARTUP: customtime

* Packet analysis
Upon running the following command:

#+begin_src sh
  sudo tcpdump -ilo -nnvvvxXKS -s0 port 3333
#+end_src

the following packet is captured:

#+begin_example
08:34:10.790666 IP (tos 0x0, ttl 64, id 12824, offset 0, flags [DF], proto TCP (6),
length 64)
    127.0.0.1.46668 > 127.0.0.1.3333: Flags [P.], seq 2400005725:2400005737, ack 373279396,
    win 512, options [nop,nop,TS val 3259949783 ecr 3259896343], length 12
        0x0000:  4500 0040 3218 4000 4006 0a9e 7f00 0001  E..@2.@.@.......
        0x0010:  7f00 0001 b64c 0d05 8f0d 2e5d 163f caa4  .....L.....].?..
        0x0020:  8018 0200 fe34 0000 0101 080a c24e e2d7  .....4.......N..
        0x0030:  c24e 1217 6865 6c6c 6f20 776f 726c 640a  .N..hello.world.
#+end_example

1. Tell me the meaning of each option used in the previous command.
   - *-i*: 
   - *-nn*: 
   - *-vvv*: 
   - *-x*:
   - *-X*: 
   - *-S*: 
   - *-K*: 
   - *-s0*: 

2. Please analyze this captured packet and explain it to me as detailed as you can.     
   - Answer :: 

* HTTP
1. Write a simple script showing how HTTP works (you need =curl=);
   #+begin_src sh
     #!/bin/bash

   #+end_src

2. Record your HTTP demo session with =ttyrec=.

* Socket programming

** TCP

#+begin_src c
  /* A simple TCP server written in C */

  // Your code
#+end_src

#+begin_src c
  /* A simple TCP client written in C */

  // Your code
#+end_src

** UDP

#+begin_src c
  /* A simple UDP server written in C */

  // Your code
#+end_src

#+begin_src c
  /* A simple UDP client written in C */

  // Your code
#+end_src

* Questions
List at least 5 problems you've met while doing this work. When
listing your problems, you have to tell me:
1. Description of this problem. For example,
   - What were you trying to do before seeing this problem?
2. How did you try solving this problem？ For example,
   - Did you google? web links?
   - Did you read the man page?
   - Did you ask others for hints?
    
** Problems
1. 
2. 
3. 
4. 
5. 

